:0403E8007070707051
:1001340078087C007D007BFF7A0379E87E007F04E9
:100144001200D3D2B7D290120262C29020B70E75B9
:100154000865750965750A65750B65803120B60EED
:10016400750866750966750A66750B66802020B584
:100174000E750867750967750A67750B67800F2028
:10018400B40C750868750968750A68750B68E50C20
:100194007006D290C291801FE50CB40B06C290D2B7
:1001A400918014E50CB41606C290C2918009E50C46
:1001B400B42104D290D2917B007A00790812035DB5
:1001C4001203DF7B007A00790C1202B21203DF0201
:0201D4000150D8
:0803DF007F037E23DEFEDFFC3C
:0103E70022F3
:0E03C300052600000000A1052100000000A199
:10039D00E4FEEEC39F500D000000000000000000C1
:0403AD00000E80EED0
:0103B1002229
:10038400E4FEEF339294EF25E0FFD295A293E43399
:080394004207C2950EBE08EA03
:01039C00223E
:0C03D200C2CC120384E4FF120384D2CCDE
:0103DE0022FC
:1003B200C2CC120384AC07AF05120384D2CCAF04C3
:0103C2002218
:060330008B148A158916EA
:10033600C2CC120384E4FDEDC395175017E4FF12F7
:100346000384AB14AA15A9168D82758300EF1201DA
:06035600120D80E3D2CC81
:01035C00227E
:0B02F5007B007A0079217517057F2A35
:060300008B148A1589161A
:10030600C2CC1203848F18E4FDEDC395175018ABC9
:10031600140516E516AA157002051514F91200F94A
:09032600FF1203840D80E2D2CC29
:01032F0022AB
:10035D008B108A118912C2CD1202F5AB10AA11A908
:10036D00127517047FA01203007D0E7F201203B2B9
:07037D00D2CD7FFA02039DBF
:1002B2008B108A118912C2CD7B007A0079267517BC
:1002C200057F301203007D0F7F201203B27F0712D9
:1002D20003D28F2030060EAB10AA11A91275170493
:1002E2007F61120330AD207F271203B2D2CD7FC8C7
:0302F20002039D67
:10026200C2CDD2CCC2957FC812039D12039D120348
:100272009DC2CDD2CCC2957B007A00792675170536
:100282007F301203001202F57D017F211203B27F3B
:10029200221203B21D7F251203B27D047F311203A5
:1002A200B27D077F261203B27FC812039D02039D0F
:030000000201D624
:0C01D600787FE4F6D8FD75812A02021D36
:10000300E709F608DFFA8046E709F208DFFA803EDF
:1000130088828C83E709F0A3DFFA8032E309F608CC
:10002300DFFA8078E309F208DFFA807088828C8334
:10003300E309F0A3DFFA806489828A83E0A3F608E8
:10004300DFFA805889828A83E0A3F208DFFA804CC2
:1000530080D280FA80C680D4806980F28033801099
:1000630080A680EA809A80A880DA80E280CA803302
:1000730089828A83ECFAE493A3C8C582C8CCC5837A
:10008300CCF0A3C8C582C8CCC583CCDFE9DEE7804A
:100093000D89828A83E493A3F608DFF9ECFAA9F0C9
:1000A300EDFB2289828A83ECFAE0A3C8C582C8CC1F
:1000B300C583CCF0A3C8C582C8CCC583CCDFEADE38
:1000C300E880DB89828A83E493A3F208DFF980CC9A
:1000D30088F0EF60010E4E60C388F0ED2402B40493
:1000E3000050B9F582EB2402B4040050AF2323453A
:0600F3008223900053730C
:1000F900BB010689828A83E0225002E722BBFE0205
:09010900E32289828A83E4932237
:10011200F8BB010DE58229F582E5833AF583E8F023
:10012200225006E92582C8F622BBFE05E92582C8CF
:02013200F222B7
:1001E200020134E493A3F8E493A34003F68001F2FE
:1001F20008DFF48029E493A3F85407240CC8C3331E
:10020200C4540F4420C8834004F456800146F6DFEC
:10021200E4800B01020408102040809003C3E47EB6
:10022200019360BCA3FF543F30E509541FFEE493E1
:10023200A360010ECF54C025E060A840B8E493A3A8
:10024200FAE493A3F8E493A3C8C582C8CAC583CAD3
:10025200F0A3C8C582C8CAC583CADFE9DEE780BE8B
:0103D100002B
:00000001FF
