:040435007070707003
:1001340078087C007D007BFF7A0479357E007F049B
:100144001200D3D2B7D2B6D2B3D2B2D2901202A096
:10015400C290E4F508F509F50AF50B20B717120467
:100164000120B768750865750965750A65750B65BD
:1001740020B75980FB20B61712040120B64E75082B
:1001840066750966750A66750B6620B63F80FB20A6
:10019400B31712040120B334750867750967750A2B
:1001A40067750B6720B32580FB20B217120401206A
:1001B400B21A750868750968750A68750B6820B203
:1001C4000B80FBE4F508F509F50AF50BE50C700660
:1001D400D290C291801FE50CB40B06C290D29180DC
:1001E40014E50CB41606C290C2918009E50CB42142
:1001F40004D290D2917B007A00790812039B1204F6
:100204002C7B007A00790C1202F012042C020156A5
:0E04010000007F037E1A7DDFDDFEDEFCDFFAE9
:01040F0022CA
:08042C007F037E23DEFEDFFCEE
:0104340022A5
:0E041000052600000000A1052100000000A14B
:1003DB00E4FEEEC39F500D00000000000000000083
:0403EB00000E80EE92
:0103EF0022EB
:1003C200E4FEEF339294EF25E0FFD295A293E4335B
:0803D2004207C2950EBE08EAC5
:0103DA002200
:0C041F00C2CC1203C2E4FF1203C2D2CC14
:01042B0022AE
:1003F000C2CC1203C2AC07AF051203C2D2CCAF0409
:0104000022D9
:06036E008B148A158916AC
:10037400C2CC1203C2E4FDEDC395175017E4FF127B
:1003840003C2AB14AA15A9168D82758300EF12015E
:06039400120D80E3D2CC43
:01039A002240
:0B0333007B007A0079217517057F2AF6
:06033E008B148A158916DC
:10034400C2CC1203C28F18E4FDEDC395175018AB4D
:10035400140516E516AA157002051514F91200F90C
:09036400FF1203C20D80E2D2CCAD
:01036D00226D
:10039B008B108A118912C2CD120333AB10AA11A98B
:1003AB00127517047FA012033E7D0E7F201203F0FF
:0703BB00D2CD7FFA0203DB43
:1002F0008B108A118912C2CD7B007A00792675177E
:10030000057F3012033E7D0F7F201203F07F07121E
:10031000041F8F2030060EAB10AA11A91275170406
:100320007F6112036EAD207F271203F0D2CD7FC80C
:030330000203DBEA
:1002A000C2CDD2CCC2957FC81203DB1203DB12038E
:1002B000DBC2CDD2CCC2957B007A007926751705BA
:1002C0007F3012033E1203337D017F211203F07F42
:1002D000221203F01D7F251203F07D047F311203EB
:1002E000F07D077F261203F07FC81203DB0203DBD9
:03000000020214E5
:0C021400787FE4F6D8FD75812A02025BB9
:10000300E709F608DFFA8046E709F208DFFA803EDF
:1000130088828C83E709F0A3DFFA8032E309F608CC
:10002300DFFA8078E309F208DFFA807088828C8334
:10003300E309F0A3DFFA806489828A83E0A3F608E8
:10004300DFFA805889828A83E0A3F208DFFA804CC2
:1000530080D280FA80C680D4806980F28033801099
:1000630080A680EA809A80A880DA80E280CA803302
:1000730089828A83ECFAE493A3C8C582C8CCC5837A
:10008300CCF0A3C8C582C8CCC583CCDFE9DEE7804A
:100093000D89828A83E493A3F608DFF9ECFAA9F0C9
:1000A300EDFB2289828A83ECFAE0A3C8C582C8CC1F
:1000B300C583CCF0A3C8C582C8CCC583CCDFEADE38
:1000C300E880DB89828A83E493A3F208DFF980CC9A
:1000D30088F0EF60010E4E60C388F0ED2402B40493
:1000E3000050B9F582EB2402B4040050AF2323453A
:0600F3008223900053730C
:1000F900BB010689828A83E0225002E722BBFE0205
:09010900E32289828A83E4932237
:10011200F8BB010DE58229F582E5833AF583E8F023
:10012200225006E92582C8F622BBFE05E92582C8CF
:02013200F222B7
:10022000020134E493A3F8E493A34003F68001F2BF
:1002300008DFF48029E493A3F85407240CC8C333DF
:10024000C4540F4420C8834004F456800146F6DFAE
:10025000E4800B0102040810204080900410E47E2A
:10026000019360BCA3FF543F30E509541FFEE493A3
:10027000A360010ECF54C025E060A840B8E493A36A
:10028000FAE493A3F8E493A3C8C582C8CAC583CA95
:10029000F0A3C8C582C8CAC583CADFE9DEE780BE4D
:01041E0000DD
:00000001FF
