:0602C2000425707070704D
:10000E00D2B7D2B6D2B3D2B21202EC12030F12038F
:10001E000F12030F12014C12030FE4F525F526F50E
:10002E0027F52820B70E12030F20B744752601209E
:10003E00B73E80FB20B60E12030F20B63375260294
:10004E0020B62D80FB20B30E12030F20B32275268F
:10005E000320B31C80FB20B20E12030F20B21175C9
:10006E00260920B20B80FBE4F525F526F527F528A9
:10007E007B007A00792512028212032B7B007A0014
:10008E00792112019C12032BE522B40106C291D2F2
:10009E00908087E522B40207C290D291020028E533
:1000AE0022B40307C291C290020028D291D29002CC
:0200BE00002818
:0E030F0000007F037E1A7DDFDDFEDEFCDFFADC
:01031D0022BD
:0B032B000000007F027E99DEFEDFFC78
:0103360022A4
:0E02C800050D00000000A1050800000000A1C7
:1002D700E4FEEEC39F500D00000000000000000088
:0402E700000E80EE97
:0102EB0022F0
:1002A900E4FEEF339294EF25E0FFD295A293E43375
:0802B9004207C2950EBE08EADF
:0102C100221A
:0C031E00C2CC1202A9E4FF1202A9D2CC4A
:01032A0022B0
:1002FE00C2CC1202A9AC07AF051202A9D2CCAF0430
:01030E0022CC
:060255008B168A178918C0
:10025B00C2CC1202A9E4FDEDC395195017E4FF12AD
:10026B0002A9AB16AA17A9188D82758300EF12028B
:06027B00330D80E3D2CC3C
:01028100225A
:0B01DF007B007A0079087519057F2A63
:0601EA008B168A1789182C
:1001F000C2CC1202A98F1AE4FDEDC395195018ABB9
:10020000160518E518AA177002051714F912021A34
:09021000FF1202A90D80E2D2CC1C
:0102190022C2
:100282008B128A138914C2CD1201DFAB12AA13A9F1
:10029200147519047FA01201EA7D0E7F201202FE5E
:0702A200D2CD7FFA0202D762
:10019C008B128A138914C2CD7B007A00790D7519E4
:1001AC00057F301201EA7D0F7F201202FE7F0712BD
:1001BC00031E8F2030060EAB12AA13A91475190456
:1001CC007F61120255AD207F271202FED2CD7FC86F
:0301DC000202D745
:10014C00C2CDD2CCC2957FC81202D71202D71202EE
:10015C00D7C2CDD2CCC2957B007A00790D7519052A
:10016C007F301201EA1201DF7D017F211202FE7F36
:10017C00221202FE1D7F251202FE7D047F31120227
:10018C00FE7D077F261202FE7FC81202D70202D71D
:03000B00020003ED
:0100030032CA
:1002EC00438E80E4F589F58A758C40D28CD2A9D2E4
:0202FC00AF222F
:030000000200C03B
:0C00C000787FE4F6D8FD75812802010766
:10021A00BB010689828A83E0225002E722BBFE02E2
:09022A00E32289828A83E4932215
:10023300F8BB010DE58229F582E5833AF583E8F001
:10024300225006E92582C8F622BBFE05E92582C8AD
:02025300F22295
:1000CC0002000EE493A3F8E493A34003F68001F23C
:1000DC0008DFF48029E493A3F85407240CC8C33335
:1000EC00C4540F4420C8834004F456800146F6DF04
:1000FC00E4800B01020408102040809002C2E47ED0
:10010C00019360BCA3FF543F30E509541FFEE493F8
:10011C00A360010ECF54C025E060A840B8E493A3BF
:10012C00FAE493A3F8E493A3C8C582C8CAC583CAEA
:10013C00F0A3C8C582C8CAC583CADFE9DEE780BEA2
:0102D6000027
:00000001FF
