:0902D50004177070707001120032
:10000E00D2B7D2B6D2B3D2B2120302120325120362
:10001E002512032512015F120325E4F518F519F5D3
:10002E001A20B70E12032520B74E75180120B748B7
:10003E0080FB20B60E12032520B63D75180220B6A1
:10004E003780FB20B30E12032520B32C7518032026
:10005E00B32680FB20B21A12032520B21BE51270C4
:10006E00047F0180027F008F1285121720B2098053
:10007E00FBE4F518F519F51A7B007A0079171202D0
:10008E00951203417B007A0079131201AF120341DE
:10009E00E51270028021D291D290E514B40107C20C
:1000AE0091D290020028E514B40207C290D29102B8
:1000BE000028E514B40307C291C290020028D29121
:0500CE00D290020028A1
:0E03250000007F037E1A7DDFDDFEDEFCDFFAC6
:0103330022A7
:0B0341000000007F027E99DEFEDFFC62
:01034C00228E
:0E02DE00050D00000000A1050800000000A1B1
:1002ED00E4FEEEC39F500D00000000000000000072
:0402FD00000E80EE81
:0103010022D9
:1002BC00E4FEEF339294EF25E0FFD295A293E43362
:0802CC004207C2950EBE08EACC
:0102D4002207
:0C033400C2CC1202BCE4FF1202BCD2CC0E
:01034000229A
:10031400C2CC1202BCAC07AF051202BCD2CCAF04F3
:0103240022B6
:060268008B258A26892780
:10026E00C2CC1202BCE4FDEDC395285017E4FF1278
:10027E0002BCAB25AA26A9278D82758300EF120238
:06028E00460D80E3D2CC16
:010294002247
:0B01F2007B007A0079087528057F2A41
:0601FD008B258A268927EC
:10020300C2CC1202BC8F29E4FDEDC395285018AB74
:10021300250527E527AA267002052614F912022DC3
:09022300FF1202BC0D80E2D2CCF6
:01022C0022AF
:100295008B218A228923C2CD1201F2AB21AA22A980
:1002A500237528047FA01201FD7D0E7F2012031403
:0702B500D2CD7FFA0202ED39
:1001AF008B218A228923C2CD7B007A00790D752895
:1001BF00057F301201FD7D0F7F201203147F071280
:1001CF0003348F2030060EAB21AA22A923752804F1
:1001DF007F61120268AD207F27120314D2CD7FC832
:0301EF000202ED1C
:10015F00C2CDD2CCC2957FC81202ED1202ED1202AF
:10016F00EDC2CDD2CCC2957B007A00790D752805F2
:10017F007F301201FD1201F27D017F211203147FE6
:10018F00221203141D7F251203147D047F311203E5
:10019F00147D077F261203147FC81202ED0202EDB1
:03000B00020003ED
:0100030032CA
:10030200438E80E4F589F58A758C40D28CD2A9D2CD
:02031200AF2218
:030000000200D328
:0C00D300787FE4F6D8FD75812902011A3F
:10022D00BB010689828A83E0225002E722BBFE02CF
:09023D00E32289828A83E4932202
:10024600F8BB010DE58229F582E5833AF583E8F0EE
:10025600225006E92582C8F622BBFE05E92582C89A
:02026600F22282
:1000DF0002000EE493A3F8E493A34003F68001F229
:1000EF0008DFF48029E493A3F85407240CC8C33322
:1000FF00C4540F4420C8834004F456800146F6DFF1
:10010F00E4800B01020408102040809002D5E47EA9
:10011F00019360BCA3FF543F30E509541FFEE493E5
:10012F00A360010ECF54C025E060A840B8E493A3AC
:10013F00FAE493A3F8E493A3C8C582C8CAC583CAD7
:10014F00F0A3C8C582C8CAC583CADFE9DEE780BE8F
:0102EC000011
:00000001FF
