:0A15D5007265616479202020200077
:07126C004400060B0B0B0B05
:1010AA00E4F594F593F592F591F596F595F5B2F583
:1010BA00B1F5B4F5B3D2C1D2B7D28290005374FF5E
:1010CA00F0A37415F0A374E8F012156212159112C8
:1010DA0011C8120A9F1213BD7BFF7A1579D59000A9
:1010EA00257410F0E4FD7F0A1211151207447B01E2
:1010FA007A0079061213271215C97B017A00790240
:0B110A001211751215C91208BB80E01D
:0B15C9000000007F027E99DEFEDFFCC8
:0115D40022F4
:10127300480016050109080A020604440012080280
:02128300060162
:0415E80075A00122C7
:080FCE00900069EEF0A3EFF0C2
:100FD600E4A3F0ED702DF090006BE0FFC394085091
:100FE6005474162FF582E43400F583E025E0F5A06D
:100FF600900069E0FEA3E0FF12141490006BE00479
:10100600F080D490006B7407F090006BE0FFD394EF
:1010160000402274162FF582E43400F583E025E0C3
:10102600F5A0900069E0FEA3E0FF12141490006B97
:05103600E014F080D47D
:01103B002292
:05103C00900058EFF0E8
:10104100E4A3F0A3F0A3F0A3F0900058E0FF900018
:101051005CE0FE04F0EEC39F504EE4900059F09026
:101061000059E0C3941450E1E490005BF090005A01
:10107100E02416F582E43400F583E025E0F5A09044
:10108100005AE004F0E0C394084002E4F07F017EDE
:101091000012141490005BE004F0E0C3941440CDFE
:0810A100900059E004F080B753
:0110A9002224
:1015520074162FF582E43400F583E025E0F5A0222D
:10156200D2AF758911D2A9758CFB758AB4D28C223F
:03000B00020D07DC
:100D0700C0E0C0F0C083C082C0D075D000C000C0B2
:100D170001C002C003C004C005C006C007758CFB34
:100D2700758AB4900053A3E0FAA3E0F9120A9990E8
:100D37000051E004F07006900050E004F09000319C
:100D4700E0600E90002FE004F0700690002EE004A3
:100D5700F0D390002FE094A090002EE0940F40086D
:100D6700E4F0A3F0900031F090003AE004F0700650
:100D7700900039E004F0C390003AE0947090003995
:100D8700E09417400B900036E4F0900039F0A3F0A0
:100D9700D007D006D005D004D003D002D001D000B0
:0B0DA700D0D0D082D083D0F0D0E0325A
:10141400900056EEF0A3EFF0E4900050F0A3F090AB
:101424000056E0FEA3E0FFC3900051E09F900050FF
:05143400E09E40EB22E8
:0E15820000007F167E037DE3DDFEDEFCDFFA57
:011590002238
:10000E0000000000000000000000000000000000E2
:10001E00000000000000000000F8000000000000DA
:10002E0000333000000000100C06100C060000001B
:10003E0000000000000040C07840C0784000043F3F
:10004E0004043F040400007088FC0830000000180F
:10005E0020FF211E0000F008F000E0180000002133
:10006E001C031E211E0000F00888700000001E21D7
:10007E0023241927211010160E0000000000000086
:10008E00000000000000000000E018040200000064
:10009E0000071820400000020418E0000000004095
:1000AE00201807000000404080F08040400002020F
:1000BE00010F01020200000000F00000000001012B
:1000CE00011F01010100000000000000000080B0CF
:1000DE0070000000000000000000000000000001A1
:1000EE0001010101010100000000806018040060A0
:1000FE0018060100000000000000000000000030A3
:10010E0030000000000000E010080810E000000FB2
:10011E00102020100F00001010F80000000000202A
:10012E00203F202000000070080808887000003072
:10013E00282422213000003008888848300000181A
:10014E00202020110E000000C02010F80000000733
:10015E000424243F240000F80888880808000019A9
:10016E00212020110E0000E0108888180000000FDA
:10017E00112020110E0000380808C83808000000B1
:10018E00003F000000000070880808887000001C06
:10019E00222121221C0000E010080810E0000000BF
:1001AE00312222110F00000000C0C000000000002C
:1001BE000030300000000000008000000000000051
:1001CE008060000000000000804020100800000148
:1001DE00020408102000404040404040400004040B
:1001EE0004040404040000081020408000000020D5
:1001FE00100804020100007048080808F000000012
:10020E00003036010000C030C828E810E0000718A2
:10021E00272423140B000000C038E0000000203C0F
:10022E0023020227382008F8888888700000203FB3
:10023E00202020110E00C0300808080838000718CA
:10024E0020202010080008F808080810E000203FC1
:10025E00202020100F0008F88888E8081000203FA2
:10026E0020202320180008F88888E8081000203F76
:10027E00200003000000C0300808083800000718EE
:10028E002020221E020008F808000008F808203F6F
:10029E00210101213F20000808F808080000002075
:1002AE00203F2020000000000808F8080800C08049
:1002BE0080807F00000008F888C028180800203FC2
:1002CE0020012638200008F8080000000000203F1A
:1002DE0020202020300008F8F800F8F80800203F11
:1002EE00003F003F200008F830C00008F808203F0B
:1002FE00200007183F00E01008080810E0000F105B
:10030E00202020100F0008F808080808F000203FF1
:10031E00210101010000E01008080810E0000F188C
:10032E00242438504F0008F8888888887000203FB1
:10033E002000030C302000708808080838000038B0
:10034E00202121221C00180808F8080818000000B7
:10035E00203F2000000008F808000008F808001FE1
:10036E00202020201F000878880000C838080000D0
:10037E0007380E010000F80800F80008F800033CEA
:10038E000700073C030008186880806818082030B2
:10039E002C03032C30200838C800C8380800000091
:1003AE00203F2000000010080808C8380800203838
:1003BE00262120201800000000FE0202020000008C
:1003CE00007F40404000000C30C0000000000000E4
:1003DE0000010638C00000020202FE0000000040CC
:1003EE0040407F00000000000402020204000000F2
:1003FE0000000000000000000000000000008080EF
:10040E0080808080808000020204000000000000D6
:10041E0000000000000000008080808000000019B5
:10042E00242222223F2008F8008080000000003F96
:10043E00112020110E000000008080800000000EB0
:10044E00112020201100000000808088F800000E8E
:10045E00112020103F200000808080800000001FAF
:10046E00222222221300008080F088888818002023
:10047E00203F202000000000808080808000006BE4
:10048E0094949493600008F8008080800000203FD0
:10049E00210000203F2000809898000000000020DE
:1004AE00203F20200000000000809898000000C02F
:1004BE008080807F000008F8000080808000203F50
:1004CE0024022D302000000808F800000000002053
:1004DE00203F202000008080808080808000203F90
:1004EE0020003F20003F8080008080800000203F61
:1004FE00210000203F200000808080800000001F2F
:10050E00202020201F00808000808000000080FFBF
:10051E00A12020110E000000008080808000000EBF
:10052E00112020A0FF80808080008080800020200D
:10053E003F21200001000000808080808000003379
:10054E00242424241900008080E080800000000014
:10055E00001F202000008080000000808000001F0F
:10056E00202020103F2080808000008080800001AD
:10057E000E300806010080800080008080800F30E1
:10058E000C030C300F000080800080808000002063
:10059E00312E0E312000808080000080808080818E
:1005AE008E701806010000808080808080000021FF
:1005BE00302C2221300000000000807C020200005E
:1005CE000000003F404000000000FF00000000005F
:1005DE000000FF0000000002027C800000000040CE
:1005EE00403F00000000000601010202040400006A
:1005FE00000000000000080889EA1888000404FCC6
:10060E00040404FC000000000000000000000000D4
:10061E00000000000000020100FF018640201807C4
:10062E004080403F0000000000000000000000007D
:10063E000000000000001010F01F10F00040E05805
:10064E0047405060C00000000000000000000000A5
:10065E000000000000004022150816210000FE4296
:10066E00424242FE000000000000000000000000B8
:10067E00000000000000008060F807000000FF404E
:10068E002010080400000000000000000000000020
:10069E00000000000000010000FF000402013F40C6
:1006AE0040404040780000000000000000000000C4
:1006BE000000000000000000F010101010FF1010DD
:1006CE001010F0000000000000000000000000000C
:1006DE0000000000000000000F04040404FF0404E6
:1006EE0004040F00000000000000000000000000E5
:1006FE0000000000000000000000000000000000EC
:10070E0000000000000000000000000000000000DB
:10071E0000000000000000000000000000000000CB
:10072E0000000000000000000000000000000000BB
:06073E00000000000000B5
:1014E700EF4E60157D087C07ED1DAA0470011C4AAC
:0914F70070F6EF1F70EA1E80E799
:0115000022C8
:0915DF00D2B6D2B5C2B5C2B622E3
:07000300D2B6C2B5D2B5224E
:0B1572001213F412157DAF041213F4E5
:05157D00D2B6C2B62247
:0713ED00AC071215DF7F7849
:1013F400C2B6E4FEAD07ED5480B48004D2B58002D9
:0F140400C2B5EF25E0FFD2B6C2B60EEEB408E5D2
:0114130022B6
:0E15A0001213ED12157DE4FF12157202000306
:0E15AE001213ED12157D7F401215720200031C
:1014A7001214B8E4FDFCFFFE1214B87F10E4FDFC33
:0114B700FE36
:1014B800AB07AA06ED4C60030215AEAF031215A0E8
:0114C8002201
:0812F300900029E0FFA3E0FDDB
:1012FB00A907ED24B0FFE433FEE4FDFC1214B8E9BA
:10130B0054F0C4540F7E004410FFE4FDFC1214B8DB
:0C131B00E9540FFF7E00E4FDFC0214B852
:101501007F8D1214B4E4FDFC7F14FE1214B8E4FDC7
:07151100FC7FAFFE0214B8DD
:1013BD00E4F9E924B0FFE433FEE4FDFC1214A7E4E4
:1013CD00900020F07D017C00E4FFFE1214B8900027
:0F13DD0020E004F0E0C3948040EA09E9B408D3AB
:0113EC0022DE
:0B0B7F0090002AEDF0900029EFF0FD3F
:100B8A00E490002DF0F9EB24E0F0EDD3947F400AD5
:100B9A00E4900029F0A3E02402F090002CE0641015
:100BAA00706E1212F3E4F990002DE075F010A4298A
:100BBA00F582E435F0F583E5822414F582E5833481
:100BCA0000F583E493FF7E007D017C001214B809CE
:100BDA00E9B408D3900029E0FFA3E004FD1212FB58
:100BEA00E4F990002DE075F010A429F582E435F0BF
:100BFA00F583E582241CF582E5833400F583E493CA
:100C0A00FF7E007D017C001214B809E9B408D322E2
:100C1A001212F3E4F990002DE075F006A4240EF503
:100C2A0082E43400F583E58229F582E43583F5838D
:100C3A00E493FF7E007D017C001214B809E9B40632
:010C4A00D4D5
:010C4B002286
:0714C900900029EFF0A905D6
:1014D0007F017E00AD0119ED600C900029E0FD7CDC
:0614E00000120A1C80EE60
:0114E60022E3
:0E0C4C00900020EFF0A3EDF0A3EAF0A3EBF090
:100C5A00E4900028F0900026F0900024E0FF900035
:100C6A0026E0FEC39F4003020D06C3EF9E14FD7FDC
:100C7A000A1214C9900022E0FCA3E0FDCFCDCFCE2A
:100C8A00CCCE120A2E7C007D0A120A2E900027ED85
:100C9A00F0A3E07036900024E014FF900026E0FEF6
:100CAA00C39F5027A3E0701D900025E0FCC3138E5C
:100CBA00F0A4FF900020E02FFFA3E0FD90002CECB1
:100CCA00F07B20802B9000287401F0900025E0FE34
:100CDA00C313FFA3E0FDEF8DF0A4FF900020E02FE7
:100CEA00FFA3E0FD900027E02430FB90002CEEF0FB
:0C0CFA00120B7F900026E004F0020C6357
:010D060022CA
:10111500900020EFF0A3EDF0A3EBF0A3EAF0A3E934
:01112500F0D9
:10112600E4900026F0900022E0FBA3E0FAA3E0F9A9
:10113600900026E0F5827583001209CDFB602F90A2
:101146000020E0FFA3E0FD900025E090002CF012C7
:101156000B7F900020E02408F0E0D394784007E469
:0E116600F0A3E02402F0900026E004F080B731
:011174002258
:0D0E450090005FEBF090005DEFF0A3EDF08A
:100E5200E4900060F01212FBE4F990005FE075F09C
:100E620040A42404F582E5F03406F583E58229F5F1
:100E720082E43583F583E493FF7E007D017C0012DA
:100E820014B8900060E004F009E9B410CD90005D60
:100E9200E0FFA3E004FD1212FBE4F990005FE075AD
:100EA200F040A42424F582E5F03406F583E5822996
:100EB200F582E43583F583E493FF7E007D017C00B7
:0E0EC2001214B8900060E004F009E9B410CDFD
:010ED00022FF
:0A0DB20090003BEFF090003DEBF0E5
:100DBC00E4900042F0A3F090003EE0FF540770086E
:100DCC00EF131313541F800A90003EE013131354B7
:100DDC001F04900045F0900045EDF090003EE0FFC0
:100DEC00900045E0FDC39F504F90003BE0FF121276
:100DFC00FBE0900044F090003DE0FF900044E0C325
:100E0C009F502D90003FE0FBA3E0FAA3E0F9A3E490
:100E1C0075F001120A8385F082F5831209CDFF7EED
:100E2C00007D017C001214B8900044E004F080C6F0
:080E3C00900045E004F080A3E2
:010E4400228B
:100A9F00E4FDFC7FAEFE1214A7E4FDFC7F40FE12C6
:100AAF0014B8E4FDFC7FB0FE1214B8E4FDFC7F81A6
:100ABF00FE1214B8E4FDFC7FFFFE1214B8E4FDFC37
:100ACF007FA0FE1214B8E4FDFC7FA6FE1214B8E45A
:100ADF00FDFC7FA8FE1214B8E4FDFC7F3FFE12144C
:100AEF00B8E4FDFC7FC0FE1214B8E4FDFC7FD3FE1A
:100AFF001214B8E4FDFCFFFE1214B8E4FDFC7FD520
:100B0F00FE1214B8E4FDFC7F80FE1214B8E4FDFC65
:100B1F007FD8FE1214B8E4FDFC7F05FE1214B8E472
:100B2F00FDFC7FD9FE1214B8E4FDFC7FF1FE121418
:100B3F00B8E4FDFC7FDAFE1214B8E4FDFC7F12FE70
:100B4F001214B8E4FDFC7FDBFE1214B8E4FDFC7F49
:100B5F0030FE1214B8E4FDFC7F8DFE1214B8E4FDD4
:100B6F00FC7F14FE1214B8E4FDFC7FAFFE0214B834
:1012850045004B00000000A145004600000000A1FC
:10151800E4FEEEC39F500D00000000000000000034
:04152800000E80EE43
:01152C00229C
:0A148300EBF0A3EAF0A3E9F0C29633
:10148D00E4FEEF339294EF25E0FFD295A293E4337F
:09149D004FFFC2950EEEB408E900
:0114A6002223
:0C15BC00C29612148DE4FF12148DD2961A
:0115C8002200
:10154100C29612148DAC07AF0512148DD296AF045A
:011551002277
:03135B00900024DB
:10135E00121483E4FD900027E0FFEDC39F501CE4C0
:10136E00FF12148D900024E0FBA3E0FAA3E0F98DA8
:0D137E0082758300EF1209FA0D80DAD29615
:01138B00223F
:0E12B1007B017A0079469000277405F07F2AB1
:0312BF0090002478
:1012C200121483900028EFF0E4FD900027E0FFED78
:1012D200C39F501A900024E0FBA3E475F001120AA8
:1012E20083A9F0FA1209B4FF12148D0D80DCD29694
:0112F20022D9
:10132700900020EBF0A3EAF0A3E9F0C2971212B104
:10133700900020E0FBA3E0FAA3E0F99000277404F3
:10134700F07FA01212BF7D0E7F20121541D2977F2A
:04135700FA02151869
:10117500900020EBF0A3EAF0A3E9F0C2977B017A97
:1011850000794B9000277405F07F301212BF7D0F58
:101195007F201215417F071215BC8F20300616904F
:1011A5000020E0FBA3E0FAA3E0F99000277404F027
:1011B5007F6112135BAD207F27121541D2977FC83F
:0311C500021518F8
:1011C800C297D296C2957FC8121518121518121513
:1011D80018C297D296C2957B017A00794B90002766
:1011E8007405F07F301212BF1212B17D017F2112F7
:1011F80015417F221215411D7F251215417D047F5F
:10120800311215417D077F261215417FC812151826
:03121800021518A4
:0F159100759D01E4F5BD75BC807F02FE02141448
:10152D00EF4488F5BC00000000E5BC30E4FB53BC83
:04153D00EFAFBD222D
:100F5D00636172202020200070656F706C65004108
:100F6D004C4C2020202020202000726561647920C7
:100F7D002020202020002020202020202020202084
:100F8D0020004E6F205468726F75676820004C65A5
:100F9D0074205468726F75676820202000202053DC
:100FAD00544F5020202020202020006175746F5F49
:100FBD006D6F64656C00636F6E745F6D6F64656CEF
:010FCD000023
:101295004100310042002E000042003400004100B0
:0B12A50030014100360042003900001B
:01000A0022D3
:10138C00C2C3D2C230B718900052E014F0E0FF1282
:10139C001552900052E0D3940050157407F02212AD
:1013AC0015E890005374FFF0A37415F0A374E8F0E3
:0113BC00220E
:10121B00C2C2D2C330C117900052E004F0E0FF12FB
:10122B001552900052E0C394074035E4F02212159A
:10123B00E8900035E004F07006900034E004F0D341
:10124B00900035E094A0900034E0940F4012E4F04D
:10125B00A3F090005374FFF0A37413F0A3748CF0FD
:01126B002260
:10143900900036E06401601CD284C2837F647E0020
:10144900121414D284D2839000367401F0E490000F
:0514590039F0A3F022B0
:10145E00900036E06402601CC284D2837F647E00FA
:10146E00121414D284D2839000367402F0E49000E9
:05147E0039F0A3F0228B
:1007440020823BE4FF12152DEF25E025E045BEC3D2
:1007540094C8502A7BFF7A0F795D9000257410F0BD
:10076400E4FD7F0A121115900030E0FFB40107A3E5
:100774007402F0020820EF600302082080723082C5
:1007840037E4FF12152DEF25E025E045BED394C8CC
:1007940040267BFF7A0F79659000257410F0E4FD04
:1007A4007F0A121115900030E0FFB40106A3740112
:1007B400F08069EF70668038208248E4FF12152DBE
:1007C400EF25E025E045BED394C840377BFF7A0F80
:1007D400796C9000257410F0E4FD7F0A12111590D5
:1007E4000030E0FFB40106A37403F0802FEF702CF7
:1007F40090005374FFF0A37412F0A3741BF012144E
:10080400398019900031E070137BFF7A0F7977906B
:1008140000257410F0E4FD7F0A12111520B32F7B1C
:10082400FF7A0F79839000257410F0E4FD7F0A129B
:10083400111590005374FFF0A37413F0A3748CF09B
:100844009000007401F07BFF7A0F798F803020B420
:100854003A7BFF7A0F79839000257410F0E4FD7FD2
:100864000A12111590005374FFF0A37412F0A374CC
:100874001BF09000007402F07BFF7A0F799B9000CC
:10088400257410F07D037F0A121115900031E09059
:100894000007F0E4FF12152DEF75F004A4FFADBEC0
:1008A400E5F0FAEF4DFB9000247404F0A37410F00B
:0708B4007D057F50020C4C92
:1008BB0090000DE0FF900003E06F700302096A9057
:1008CB000030E0640160030209627BFF7A0F7983D9
:1008DB009000257410F0E4FD7F0A121115900003AF
:1008EB00E0B4011F12145E90005374FFF0A3741355
:1008FB00F0A3748CF09000007401F07BFF7A0F79F9
:10090B008F8047900003E0B4021F121439900053FC
:10091B0074FFF0A37412F0A3741BF0900000740228
:10092B00F07BFF7A0F799B8021900003E0B40327C3
:10093B0090005374FFF0A37415F0A374E8F09000CB
:10094B00007403F07BFF7A0F79AA9000257410F0E6
:10095B007D037F0A121115900003E090000DF090BB
:10096B000002E0900030F070257BFF7A0F79B89091
:10097B0000257410F07D05E4FF1211157BFF7A0F33
:10098B0079839000257410F07D037F0A8017900007
:10099B0030E0B401137BFF7A0F79C39000257410FC
:0909AB00F07D05E4FF1211152294
:03000000020ED11C
:0C0ED100787FE4F6D8FD758120020F1830
:1009B400BB010689828A83E0225002E722BBFE0241
:0909C400E32289828A83E4932274
:1009CD00BB010CE58229F582E5833AF583E02250DF
:1009DD0006E92582F8E622BBFE06E92582F8E22229
:0D09ED00E58229F582E5833AF583E4932243
:1009FA00F8BB010DE58229F582E5833AF583E8F033
:100A0A00225006E92582C8F622BBFE05E92582C8DE
:020A1A00F222C6
:100A1C00EF8DF0A4A8F0CF8CF0A428CE8DF0A42EEE
:020A2C00FE22A8
:100A2E00BC000BBE0029EF8DF084FFADF022E4CCAC
:100A3E00F875F008EF2FFFEE33FEEC33FCEE9DEC75
:100A4E00984005FCEE9DFE0FD5F0E9E4CEFD22EDBB
:100A5E00F8F5F0EE8420D21CFEADF075F008EF2F05
:100A6E00FFED33FD4007985006D5F0F222C398FDF6
:050A7E000FD5F0EA2293
:100A8300A3F8E0C5F025F0F0E58215827002158326
:060A9300E0C838F0E82283
:060A99008A838982E473E8
:100EDD000210AAE493A3F8E493A34003F68001F271
:100EED0008DFF48029E493A3F85407240CC8C33316
:100EFD00C4540F4420C8834004F456800146F6DFE5
:100F0D00E4800B010204081020408090126CE47EF6
:100F1D00019360BCA3FF543F30E509541FFEE493D9
:100F2D00A360010ECF54C025E060A840B8E493A3A0
:100F3D00FAE493A3F8E493A3C8C582C8CAC583CACB
:100F4D00F0A3C8C582C8CAC583CADFE9DEE780BE83
:0112B000003D
:00000001FF
