:0710AF004400060B0B0B0BC4
:10108000E4F593F59490004174FFF0A37412F0A37B
:1010900074BCF012125512128412120B120F23128A
:0F10A0000861121050E4FD7F01FE120D9480F6DE
:0B12BC000000007F027E99DEFEDFFCD8
:0112C7002204
:1010B600480016050109080A02060444001208023F
:0210C600060121
:0412FB0075A00122B7
:080D9400900053EEF0A3EFF014
:100D9C00E4A3F0ED702DF0900055E0FFC3940850E3
:100DAC005474162FF582E43400F583E025E0F5A0A9
:100DBC00900053E0FEA3E0FF121104900055E004F4
:100DCC00F080D49000557407F0900055E0FFD39458
:100DDC0000402274162FF582E43400F583E025E000
:100DEC00F5A0900053E0FEA3E0FF12110490005513
:050DFC00E014F080D4BA
:010E010022CE
:050E0200900059EFF023
:100E0700E4A3F0A3F0A3F0A3F0900059E0FF900053
:100E17005DE0FE04F0EEC39F504EE490005AF09060
:100E2700005AE0C3941450E1E490005CF090005B3A
:100E3700E02416F582E43400F583E025E0F5A09080
:100E4700005BE004F0E0C394084002E4F07F017E19
:100E57000012110490005CE004F0E0C3941440CD4C
:080E670090005AE004F080B78E
:010E6F002260
:1012450074162FF582E43400F583E025E0F5A0223D
:10125500D2AF758911D2A9758CFC758A18D28C22EA
:03000B0002116F70
:10116F00C0E0C083C082758CFC758A1890003FE088
:10117F0004F0700690003EE004F0D082D083D0E0FF
:01118F00322D
:10110400900044EEF0A3EFF0E490003EF0A3F090E2
:101114000044E0FEA3E0FFC390003FE09F90003E48
:05112400E09E40EB22FB
:0E12750000007F167E037DE3DDFEDEFCDFFA67
:011283002248
:1000460000000000000000000000000000000000AA
:10005600000000000000000000F8000000000000A2
:1000660000333000000000100C06100C06000000E3
:1000760000000000000040C07840C0784000043F07
:1000860004043F040400007088FC083000000018D7
:1000960020FF211E0000F008F000E01800000021FB
:1000A6001C031E211E0000F00888700000001E219F
:1000B60023241927211010160E000000000000004E
:1000C600000000000000000000E01804020000002C
:1000D60000071820400000020418E000000000405D
:1000E600201807000000404080F0804040000202D7
:1000F600010F01020200000000F0000000000101F3
:10010600011F01010100000000000000000080B096
:100116007000000000000000000000000000000168
:100126000101010101010000000080601804006067
:10013600180601000000000000000000000000306A
:1001460030000000000000E010080810E000000F7A
:10015600102020100F00001010F8000000000020F2
:10016600203F20200000007008080888700000303A
:1001760028242221300000300888884830000018E2
:10018600202020110E000000C02010F800000007FB
:100196000424243F240000F8088888080800001971
:1001A600212020110E0000E0108888180000000FA2
:1001B600112020110E0000380808C8380800000079
:1001C600003F000000000070880808887000001CCE
:1001D600222121221C0000E010080810E000000087
:1001E600312222110F00000000C0C00000000000F4
:1001F6000030300000000000008000000000000019
:10020600806000000000000080402010080000010F
:1002160002040810200040404040404040000404D2
:10022600040404040400000810204080000000209C
:10023600100804020100007048080808F0000000D9
:10024600003036010000C030C828E810E00007186A
:10025600272423140B000000C038E0000000203CD7
:1002660023020227382008F8888888700000203F7B
:10027600202020110E00C030080808083800071892
:1002860020202010080008F808080810E000203F89
:10029600202020100F0008F88888E8081000203F6A
:1002A60020202320180008F88888E8081000203F3E
:1002B600200003000000C0300808083800000718B6
:1002C6002020221E020008F808000008F808203F37
:1002D600210101213F20000808F80808000000203D
:1002E600203F2020000000000808F8080800C08011
:1002F60080807F00000008F888C028180800203F8A
:1003060020012638200008F8080000000000203FE1
:1003160020202020300008F8F800F8F80800203FD8
:10032600003F003F200008F830C00008F808203FD2
:10033600200007183F00E01008080810E0000F1022
:10034600202020100F0008F808080808F000203FB9
:10035600210101010000E01008080810E0000F1854
:10036600242438504F0008F8888888887000203F79
:100376002000030C30200070880808083800003878
:10038600202121221C00180808F80808180000007F
:10039600203F2000000008F808000008F808001FA9
:1003A600202020201F000878880000C83808000098
:1003B60007380E010000F80800F80008F800033CB2
:1003C6000700073C0300081868808068180820307A
:1003D6002C03032C30200838C800C8380800000059
:1003E600203F2000000010080808C8380800203800
:1003F600262120201800000000FE02020200000054
:10040600007F40404000000C30C0000000000000AB
:1004160000010638C00000020202FE000000004093
:1004260040407F00000000000402020204000000B9
:1004360000000000000000000000000000008080B6
:10044600808080808080000202040000000000009E
:10045600000000000000000080808080000000197D
:10046600242222223F2008F8008080000000003F5E
:10047600112020110E000000008080800000000E78
:10048600112020201100000000808088F800000E56
:10049600112020103F200000808080800000001F77
:1004A600222222221300008080F0888888180020EB
:1004B600203F202000000000808080808000006BAC
:1004C60094949493600008F8008080800000203F98
:1004D600210000203F2000809898000000000020A6
:1004E600203F20200000000000809898000000C0F7
:1004F6008080807F000008F8000080808000203F18
:1005060024022D302000000808F80000000000201A
:10051600203F202000008080808080808000203F57
:1005260020003F20003F8080008080800000203F28
:10053600210000203F200000808080800000001FF6
:10054600202020201F00808000808000000080FF87
:10055600A12020110E000000008080808000000E87
:10056600112020A0FF8080808000808080002020D5
:100576003F21200001000000808080808000003341
:10058600242424241900008080E0808000000000DC
:10059600001F202000008080000000808000001FD7
:1005A600202020103F208080800000808080000175
:1005B6000E300806010080800080008080800F30A9
:1005C6000C030C300F00008080008080800000202B
:1005D600312E0E3120008080800000808080808156
:1005E6008E701806010000808080808080000021C7
:1005F600302C2221300000000000807C0202000026
:100606000000003F404000000000FF000000000026
:100616000000FF0000000002027C80000000004095
:10062600403F000000000006010102020404000031
:10063600000000000000080889EA1888000404FC8D
:10064600040404FC0000000000000000000000009C
:10065600000000000000020100FF0186402018078C
:100666004080403F00000000000000000000000045
:100676000000000000001010F01F10F00040E058CD
:1006860047405060C000000000000000000000006D
:100696000000000000004022150816210000FE425E
:1006A600424242FE00000000000000000000000080
:1006B600000000000000008060F807000000FF4016
:1006C60020100804000000000000000000000000E8
:1006D600000000000000010000FF000402013F408E
:1006E600404040407800000000000000000000008C
:1006F6000000000000000000F010101010FF1010A5
:100706001010F000000000000000000000000000D3
:1007160000000000000000000F04040404FF0404AD
:1007260004040F00000000000000000000000000AC
:1007360000000000000000000000000000000000B3
:1007460000000000000000000000000000000000A3
:100756000000000000000000000000000000000093
:100766000000000000000000000000000000000083
:060776000000000000007D
:1011AE00EF4E60157D087C07ED1DAA0470011C4AE8
:0911BE0070F6EF1F70EA1E80E7D5
:0111C7002205
:0912E900D2B6D2B5C2B5C2B622DC
:07000300D2B6C2B5D2B5224E
:0B1265001210E4121270AF041210E42B
:05127000D2B6C2B62257
:0710DD00AC071212E97F7855
:1010E400C2B6E4FEAD07ED5480B48004D2B58002EC
:0F10F400C2B5EF25E0FFD2B6C2B60EEEB408E5E6
:0111030022C9
:0E1293001210DD121270E4FF12126502000349
:0E12A1001210DD1212707F401212650200035F
:10114D0012115EE4FDFCFFFE12115E7F10E4FDFC4A
:01115D00FE93
:10115E00AB07AA06ED4C60030212A1AF0312129365
:01116E00225E
:08000E0090005EE0FFA3E0FD9D
:10001600A907ED24B0FFE433FEE4FDFC12115EE90E
:1000260054F0C4540F7E004410FFE4FDFC12115E30
:0C003600E9540FFF7E00E4FDFC02115EA7
:1011C8007F8D12115AE4FDFC7F14FE12115EE4FDBE
:0711D800FC7FAFFE02115E77
:10105000E4F9E924B0FFE433FEE4FDFC12114DE4B1
:10106000900053F07D017C00E4FFFE12115E9000C1
:0F10700053E004F0E0C3948040EA09E9B408D3E8
:01107F00224E
:0B09410090005FEDF090005EEFF0FD15
:10094C00E4900062F0F9EB24E0F0EDD3947F400AE0
:10095C00E490005EF0A3E02402F0900061E06410EB
:10096C00706E12000EE4F9900062E075F010A4298C
:10097C00F582E435F0F583E582244CF582E5833489
:10098C0000F583E493FF7E007D017C0012115E096B
:10099C00E9B408D390005EE0FFA3E004FD1200165A
:1009AC00E4F9900062E075F010A429F582E435F0CA
:1009BC00F583E5822454F582E5833400F583E493D2
:1009CC00FF7E007D017C0012115E09E9B408D32280
:1009DC0012000EE4F9900062E075F006A42446F5CE
:1009EC0082E43400F583E58229F582E43583F583CE
:1009FC00E493FF7E007D017C0012115E09E9B406D0
:010A0C00D415
:010A0D0022C6
:07119000900081EFF0A905BA
:101197007F017E00AD0119ED600C900081E0FD7CC0
:0611A700001207E480EED7
:0111AD00221F
:0E0A0E00900035EFF0A3EDF0A3EAF0A3EBF0BB
:100A1C00E490003DF090003BF0900039E0FF900036
:100A2C003BE0FEC39F4003020AC8C3EF9E14FD7F48
:100A3C000A121190900037E0FCA3E0FDCFCDCFCE91
:100A4C00CCCE1207F67C007D0A1207F690003CED26
:100A5C00F0A3E07036900039E014FF90003BE0FE0C
:100A6C00C39F5027A3E0701D90003AE0FCC3138E87
:100A7C00F0A4FF900035E02FFFA3E0FD900061ECA7
:100A8C00F07B20802B90003D7401F090003AE0FE4A
:100A9C00C313FFA3E0FDEF8DF0A4FF900035E02F12
:100AAC00FFA3E0FD90003CE02430FB900061EEF0F1
:0C0ABC0012094190003BE004F0020A2502
:010AC800220B
:100E7000900046EFF0A3EDF0A3EBF0A3EAF0A3E9B6
:010E8000F081
:100E8100E490004CF0900048E0FBA3E0FAA3E0F905
:100E910090004CE0F582758300120795FB602F905E
:100EA1000046E0FFA3E0FD90004BE0900061F012EE
:100EB1000941900046E02408F0E0D394784007E42B
:0E0EC100F0A3E02402F090004CE004F080B7B3
:010ECF002200
:0D0BF90090006AEBF0900068EFF0A3EDF0C3
:100C0600E490006BF0120016E4F990006AE075F0CB
:100C160040A4243CF582E5F03406F583E58229F507
:100C260082E43583F583E493FF7E007D017C001228
:100C3600115E90006BE004F009E9B410CD900068F5
:100C4600E0FFA3E004FD120016E4F990006AE075E7
:100C5600F040A4245CF582E5F03406F583E58229AC
:100C6600F582E43583F583E493FF7E007D017C0005
:0E0C760012115E90006BE004F009E9B410CD9D
:010C8400224D
:0A0B6600900020EFF0900022EBF069
:100B7000E4900027F0A3F0900023E0FF54077008F2
:100B8000EF131313541F800A900023E01313135420
:100B90001F0490002AF090002AEDF0900023E0FF5F
:100BA00090002AE0FDC39F504F900020E0FF12000C
:100BB00016E0900029F0900022E0FF900029E0C3A9
:100BC0009F502D900024E0FBA3E0FAA3E0F9A3E4FA
:100BD00075F00112084B85F082F583120795FF7EB0
:100BE000007D017C0012115E900029E004F080C6B7
:080BF00090002AE004F080A34C
:010BF80022DA
:10086100E4FDFC7FAEFE12114DE4FDFC7F40FE1263
:10087100115EE4FDFC7FB0FE12115EE4FDFC7F81A0
:10088100FE12115EE4FDFC7FFFFE12115EE4FDFC31
:100891007FA0FE12115EE4FDFC7FA6FE12115EE454
:1008A100FDFC7FA8FE12115EE4FDFC7F3FFE1211EC
:1008B1005EE4FDFC7FC0FE12115EE4FDFC7FD3FE11
:1008C10012115EE4FDFCFFFE12115EE4FDFC7FD51A
:1008D100FE12115EE4FDFC7F80FE12115EE4FDFC60
:1008E1007FD8FE12115EE4FDFC7F05FE12115EE46D
:1008F100FDFC7FD9FE12115EE4FDFC7FF1FE1211B9
:100901005EE4FDFC7FDAFE12115EE4FDFC7F12FE67
:1009110012115EE4FDFC7FDBFE12115EE4FDFC7F43
:1009210030FE12115EE4FDFC7F8DFE12115EE4FDCE
:10093100FC7F14FE12115EE4FDFC7FAFFE02115E2E
:1010C80045003000000000A145002B00000000A1F1
:1011F600E4FEEEC39F500D0000000000000000005A
:04120600000E80EE68
:01120A0022C1
:0A112900EBF0A3EAF0A3E9F0C29690
:10113300E4FEEF339294EF25E0FFD295A293E433DC
:091143004FFFC2950EEEB408E95D
:01114C002280
:0C12AF00C296121133E4FF121133D296E4
:0112BB002210
:10123400C296121133AC07AF05121133D296AF0424
:011244002287
:03101F00900064DA
:10102200121129E4FD900067E0FFEDC39F501CE41C
:10103200FF121133900064E0FBA3E0FAA3E0F98D04
:0D10420082758300EF1207C20D80DAD2968E
:01104F00227E
:0E0F76007B017A00792B9000577405F07F2ADA
:030F840090005486
:100F8700121129900058EFF0E4FD900057E0FFEDB3
:100F9700C39F501A900054E0FBA3E475F0011208B8
:100FA7004BA9F0FA12077CFF1211330D80DCD296A1
:010FB7002217
:100FB800900078EBF0A3EAF0A3E9F0C297120F765D
:100FC800900078E0FBA3E0FAA3E0F99000577404DE
:100FD800F07FA0120F847D0E7F20121234D2977FEB
:040FE800FA0211F602
:100ED00090007BEBF0A3EAF0A3E9F0C2977B017AE4
:100EE0000079309000577405F07F30120F847D0F29
:100EF0007F201212347F071212AF8F203006169017
:100F0000007BE0FBA3E0FAA3E0F99000677404F033
:100F10007F6112101FAD207F27121234D2977FC835
:030F20000211F6C5
:100F2300C297D296C2957FC81211F61211F612110A
:100F3300F6C297D296C2957B017A0079309000571A
:100F43007405F07F30120F84120F767D017F21121A
:100F530012347F221212341D7F251212347D047F36
:100F6300311212347D077F261212347FC81211F614
:030F73000211F672
:0F128400759D01E4F5BD75BC807F02FE0211046B
:10122000EF4488F5BC00000000E5BC30E4FB53BC93
:04123000EFAFBD223D
:10120B0053BAFE759A5075D7E075D6FE758E147568
:05121B00AF01D2AF227B
:030043000211DFC8
:1011DF00C0E0E59A30E003539AFEE59A30E10553FB
:0711EF009AFDC208D0E032B6
:0912F2002008FDEFD208F59B2253
:100FEC0090007EEBF0A3EAF0A3E9F090007EE0FB2A
:100FFC00A3E0FAA3E0F912077C601790007EA3E44B
:10100C0075F00112084BA9F0FA12077CFF1212F2CC
:03101C0080D92256
:0312FF00020FECEF
:0B12DE003131320031313100D3A20069
:0410D80041004E0085
:01000A0022D3
:0B12C800900040E014F0E0FF0212452F
:0B12D300900040E004F0E0FF02124534
:100D1100E490004EF030B61BFF121220EF25E025C3
:100D2100E045BEC39464500B90004E7401F09000F6
:100D31000704F020B61BE4FF121220EF25E025E0A6
:100D410045BED39464400A90004E7402F0900007AF
:100D5100F030B61BE4FF121220EF25E025E045BE7E
:100D6100D39464400A90004E7403F0900007F0E4BD
:100D7100FF121220EF75F004A4FFADBEE5F0FAEF0B
:100D81004DFB9000397404F0A37410F07D057F05CC
:030D9100020A0E45
:100AC90090000CE0FF900002E0FE6F607CE4900073
:100AD9004DF0EEB4652F90004174FFF0A37412F04D
:100AE900A374D3F09000007402F09000407407F0F2
:100AF9007BFF7A1279DE90004B7410F07D037F241E
:100B0900120E70803C900002E0B46635900041748A
:100B1900FFF0A37412F0A374C8F09000007401F000
:100B2900E4900040F07BFF7A1279E290004B741058
:100B3900F07D037F24120E707BFF7A1279E6121280
:100B4900FF900002E090000CF020B30790000674BB
:0D0B59000BF02220B4069000067416F02266
:03000000020C856A
:0C0C8500787FE4F6D8FD758121020CCCCC
:10077C00BB010689828A83E0225002E722BBFE027B
:09078C00E32289828A83E49322AE
:10079500BB010CE58229F582E5833AF583E0225019
:1007A50006E92582F8E622BBFE06E92582F8E22263
:0D07B500E58229F582E5833AF583E493227D
:1007C200F8BB010DE58229F582E5833AF583E8F06D
:1007D200225006E92582C8F622BBFE05E92582C819
:0207E200F22201
:1007E400EF8DF0A4A8F0CF8CF0A428CE8DF0A42E29
:0207F400FE22E3
:1007F600BC000BBE0029EF8DF084FFADF022E4CCE7
:10080600F875F008EF2FFFEE33FEEC33FCEE9DECAF
:10081600984005FCEE9DFE0FD5F0E9E4CEFD22EDF5
:10082600F8F5F0EE8420D21CFEADF075F008EF2F3F
:10083600FFED33FD4007985006D5F0F222C398FD30
:050846000FD5F0EA22CD
:10084B00A3F8E0C5F025F0F0E58215827002158360
:06085B00E0C838F0E822BD
:100C9100021080E493A3F8E493A34003F68001F2E9
:100CA10008DFF48029E493A3F85407240CC8C33364
:100CB100C4540F4420C8834004F456800146F6DF33
:100CC100E4800B01020408102040809010AFE47E04
:100CD100019360BCA3FF543F30E509541FFEE49328
:100CE100A360010ECF54C025E060A840B8E493A3EF
:100CF100FAE493A3F8E493A3C8C582C8CAC583CA1A
:100D0100F0A3C8C582C8CAC583CADFE9DEE780BED1
:0110DC000013
:00000001FF
