:0F10900033340031313200313131000B0B0B0B97
:100B3200780C7C007D007BFF7A10799B7E007F041D
:100B4200120814120D0F120909120F087BFF7A10F6
:100B520079907515107D017F24120E347B007A0086
:100B6200790C120F321210D77B007A007908120D1D
:100B7200F1E508B465087BFF7A107993800BE508EC
:100B8200B466107BFF7A1079977515107D037F2468
:100B9200120E3420B30E750C0B750D0B750E0B7502
:100BA2000F0B800F20B40C750C16750D16750E16F2
:080BB200750F161210D780A484
:0B10D7000000007F027E99DEFEDFFCBF
:0110E20022EB
:100FA1000827050109080A020604042308020601AC
:0410EC00E4F5A02265
:040DAC008E5C8F5D6D
:100DB000E4F55EED701DF55E7427255EF8E625E02E
:100DC000F5A0AF5DAE5C121022055EE55EC394082F
:100DD00040E622755E077427255EF8E625E0F5A05B
:100DE000AF5DAE5C121022155EE55ED3940050E656
:010DF00022E0
:020D5F008F4FB4
:100D6100E4F550F551F552F553AF530553EFC395E3
:100D71004F5037E4F550E550C3941450ECE4F5526C
:100D810074272551F8E625E0F5A00551E551C394F6
:100D9100084003E4F5517F017E001210220552E55F
:0A0DA10052C3941440DA055080CCD0
:010DAB002225
:10107000D2AF758911D2A9758CFC758A18D28C22D1
:03000B0002104C94
:10104C00C0E0758CFC758A180555E5557002055481
:03105C00D0E032AF
:101022008E568F57E4F554F555C3E5559557E5545B
:05103200955640F52277
:0E109F0000007F167E037DE3DDFEDEFCDFFA3F
:0110AD002220
:10000E0000000000000000000000000000000000E2
:10001E00000000000000000000F8000000000000DA
:10002E0000333000000000100C06100C060000001B
:10003E0000000000000040C07840C0784000043F3F
:10004E0004043F040400007088FC0830000000180F
:10005E0020FF211E0000F008F000E0180000002133
:10006E001C031E211E0000F00888700000001E21D7
:10007E0023241927211010160E0000000000000086
:10008E00000000000000000000E018040200000064
:10009E0000071820400000020418E0000000004095
:1000AE00201807000000404080F08040400002020F
:1000BE00010F01020200000000F00000000001012B
:1000CE00011F01010100000000000000000080B0CF
:1000DE0070000000000000000000000000000001A1
:1000EE0001010101010100000000806018040060A0
:1000FE0018060100000000000000000000000030A3
:10010E0030000000000000E010080810E000000FB2
:10011E00102020100F00001010F80000000000202A
:10012E00203F202000000070080808887000003072
:10013E00282422213000003008888848300000181A
:10014E00202020110E000000C02010F80000000733
:10015E000424243F240000F80888880808000019A9
:10016E00212020110E0000E0108888180000000FDA
:10017E00112020110E0000380808C83808000000B1
:10018E00003F000000000070880808887000001C06
:10019E00222121221C0000E010080810E0000000BF
:1001AE00312222110F00000000C0C000000000002C
:1001BE000030300000000000008000000000000051
:1001CE008060000000000000804020100800000148
:1001DE00020408102000404040404040400004040B
:1001EE0004040404040000081020408000000020D5
:1001FE00100804020100007048080808F000000012
:10020E00003036010000C030C828E810E0000718A2
:10021E00272423140B000000C038E0000000203C0F
:10022E0023020227382008F8888888700000203FB3
:10023E00202020110E00C0300808080838000718CA
:10024E0020202010080008F808080810E000203FC1
:10025E00202020100F0008F88888E8081000203FA2
:10026E0020202320180008F88888E8081000203F76
:10027E00200003000000C0300808083800000718EE
:10028E002020221E020008F808000008F808203F6F
:10029E00210101213F20000808F808080000002075
:1002AE00203F2020000000000808F8080800C08049
:1002BE0080807F00000008F888C028180800203FC2
:1002CE0020012638200008F8080000000000203F1A
:1002DE0020202020300008F8F800F8F80800203F11
:1002EE00003F003F200008F830C00008F808203F0B
:1002FE00200007183F00E01008080810E0000F105B
:10030E00202020100F0008F808080808F000203FF1
:10031E00210101010000E01008080810E0000F188C
:10032E00242438504F0008F8888888887000203FB1
:10033E002000030C302000708808080838000038B0
:10034E00202121221C00180808F8080818000000B7
:10035E00203F2000000008F808000008F808001FE1
:10036E00202020201F000878880000C838080000D0
:10037E0007380E010000F80800F80008F800033CEA
:10038E000700073C030008186880806818082030B2
:10039E002C03032C30200838C800C8380800000091
:1003AE00203F2000000010080808C8380800203838
:1003BE00262120201800000000FE0202020000008C
:1003CE00007F40404000000C30C0000000000000E4
:1003DE0000010638C00000020202FE0000000040CC
:1003EE0040407F00000000000402020204000000F2
:1003FE0000000000000000000000000000008080EF
:10040E0080808080808000020204000000000000D6
:10041E0000000000000000008080808000000019B5
:10042E00242222223F2008F8008080000000003F96
:10043E00112020110E000000008080800000000EB0
:10044E00112020201100000000808088F800000E8E
:10045E00112020103F200000808080800000001FAF
:10046E00222222221300008080F088888818002023
:10047E00203F202000000000808080808000006BE4
:10048E0094949493600008F8008080800000203FD0
:10049E00210000203F2000809898000000000020DE
:1004AE00203F20200000000000809898000000C02F
:1004BE008080807F000008F8000080808000203F50
:1004CE0024022D302000000808F800000000002053
:1004DE00203F202000008080808080808000203F90
:1004EE0020003F20003F8080008080800000203F61
:1004FE00210000203F200000808080800000001F2F
:10050E00202020201F00808000808000000080FFBF
:10051E00A12020110E000000008080808000000EBF
:10052E00112020A0FF80808080008080800020200D
:10053E003F21200001000000808080808000003379
:10054E00242424241900008080E080800000000014
:10055E00001F202000008080000000808000001F0F
:10056E00202020103F2080808000008080800001AD
:10057E000E300806010080800080008080800F30E1
:10058E000C030C300F000080800080808000002063
:10059E00312E0E312000808080000080808080818E
:1005AE008E701806010000808080808080000021FF
:1005BE00302C2221300000000000807C020200005E
:1005CE000000003F404000000000FF00000000005F
:1005DE000000FF0000000002027C800000000040CE
:1005EE00403F00000000000601010202040400006A
:1005FE00000000000000080889EA1888000404FCC6
:10060E00040404FC000000000000000000000000D4
:10061E00000000000000020100FF018640201807C4
:10062E004080403F0000000000000000000000007D
:10063E000000000000001010F01F10F00040E05805
:10064E0047405060C00000000000000000000000A5
:10065E000000000000004022150816210000FE4296
:10066E00424242FE000000000000000000000000B8
:10067E00000000000000008060F807000000FF404E
:10068E002010080400000000000000000000000020
:10069E00000000000000010000FF000402013F40C6
:1006AE0040404040780000000000000000000000C4
:1006BE000000000000000000F010101010FF1010DD
:1006CE001010F0000000000000000000000000000C
:1006DE0000000000000000000F04040404FF0404E6
:1006EE0004040F00000000000000000000000000E5
:1006FE0000000000000000000000000000000000EC
:10070E0000000000000000000000000000000000DB
:10071E0000000000000000000000000000000000CB
:10072E0000000000000000000000000000000000BB
:06073E00000000000000B5
:100FC000EF4E60157D087C07ED1DAA0470011C4AD8
:090FD00070F6EF1F70EA1E80E7C5
:010FD90022F5
:0910E300D2B6D2B5C2B5C2B622E4
:07000300D2B6C2B5D2B5224E
:0B108000120F6012108BAF04120F6003
:05108B00D2B6C2B6223E
:070F5900AC071210E37F78E2
:100F6000C2B6E4FEAD07530580BD8004D2B5800251
:0E0F7000C2B5EF25E0FFD2B6C2B60EBE08E64F
:010F7E002250
:0E10AE00120F5912108BE4FF12108002000383
:0E10BC00120F5912108B7F4012108002000399
:100F7F00120F90E4FDFCFFFE120F907F10E4FDFCBA
:010F8F00FE63
:100F9000AB07AA06ED4C60030210BCAF031210AE03
:010FA000222E
:100EDC00A907ED24B0FFE433FEE4FDFC120F90E90A
:100EEC0054F0C4540F7E004410FFE4FDFC120F902C
:0C0EFC00E9540FFF7E00E4FDFC020F90A3
:10100B007F8D120F8CE4FDFC7F14FE120F90E4FD1C
:07101B00FC7FAFFE020F9005
:100F0800E4F9E924B0FFE433FEE4FDFC120F7FE4CA
:100F1800F5107D017C00E4FFFE120F900510E5102E
:090F2800C3948040ED09B908D919
:010F3100229D
:0409E9008F178D18BF
:1009ED00E4F51BF9EB24E0F51BE517D3947F4007E5
:1009FD00E4F51705180518E51A64107069AD18AF00
:100A0D0017120EDCE4F975F010E51BA429F582E44C
:100A1D0035F0F583E5822414F582E5833400F58302
:100A2D00E493FF7E007D017C00120F9009B908D67A
:100A3D00E51804FDAF17120EDCE4F975F010E51B97
:100A4D00A429F582E435F0F583E582241CF582E5D1
:100A5D00833400F583E493FF7E007D017C00120F4B
:100A6D009009B908D622AD18AF17120EDCE4F9E5DE
:100A7D001B75F006A4240EF582E43400F583E5829F
:100A8D0029F582E43583F583E493FF7E007D017CB7
:080A9D0000120F9009B906D701
:010AA500222E
:040FF3008F5FA9055E
:100FF7007F017E00AD0119ED6009AD5F7C0012082D
:03100700A280F1D3
:01100A0022C3
:080BBA008F468D478A488B49E4
:100BC200E4F54EF54CE54CC3954A5065C3E54A95AC
:100BD2004C14FD7F0A120FF3AC48AD49CFCDCFCEF6
:100BE200CCCE1208B47C007D0A1208B48D4DE54EBD
:100BF2007023E54A14FFE54CC39F5019E54D70126E
:100C0200E54BC313854CF0A42546FF854B1A7B2088
:100C12008016754E01E54BC313854CF0A42546FFA3
:100C2200E54D2430FB854B1AAD471209E9054C808E
:010C3200942D
:010C3300229E
:0A0E34008F108D118B128A138914A0
:100E3E00E4F516AB12AA13A9148516827583001257
:100E4E000853FB602085151AAD11AF101209E97415
:100E5E00082510F510D394784007E4F51005110518
:050E6E0011051680CE05
:010E7300225C
:060C34008F588D598B5A08
:100C3A00E4F55B120EDCE4F975F040E55AA42404ED
:100C4A00F582E5F03406F583E58229F582E43583F9
:100C5A00F583E493FF7E007D017C00120F90055B13
:100C6A0009B910D4E55904FDAF58120EDCE4F97540
:100C7A00F040E55AA42424F582E5F03406F583E52C
:100C8A008229F582E43583F583E493FF7E007D01B2
:0B0C9A007C00120F90055B09B910D41C
:010CA500222C
:040CA6008F318B33CC
:100CAA00E4F538F539E5345407700BE534131313BA
:100CBA00541FF53B800AE534131313541F04F53B04
:100CCA008D3BE53BC39534503BAD3BAF31120EDC57
:100CDA0085313AE53AC395335026AB35AA36A9375A
:100CEA000539E539AE387002053814F5828E83125B
:100CFA000853FF7E007D017C00120F90053A80D3D5
:040D0A00053B80BE67
:010D0E0022C2
:10090900E4FDFC7FAEFE120F7FE4FDFC7F40FE128A
:100919000F90E4FDFC7FB0FE120F90E4FDFC7F8197
:10092900FE120F90E4FDFC7FFFFE120F90E4FDFC28
:100939007FA0FE120F90E4FDFC7FA6FE120F90E44B
:10094900FDFC7FA8FE120F90E4FDFC7F3FFE120F15
:1009590090E4FDFC7FC0FE120F90E4FDFC7FD3FE06
:10096900120F90E4FDFCFFFE120F90E4FDFC7FD511
:10097900FE120F90E4FDFC7F80FE120F90E4FDFC57
:100989007FD8FE120F90E4FDFC7F05FE120F90E464
:10099900FDFC7FD9FE120F90E4FDFC7FF1FE120FE2
:1009A90090E4FDFC7FDAFE120F90E4FDFC7F12FE5D
:1009B900120F90E4FDFC7FDBFE120F90E4FDFC7F3B
:1009C90030FE120F90E4FDFC7F8DFE120F90E4FDC6
:1009D900FC7F14FE120F90E4FDFC7FAFFE020F9026
:0E0FB100054100000000A1053C00000000A169
:10103700E4FEEEC39F500D0000000000000000001A
:04104700000E80EE29
:01104B002282
:100FDA00E4FEEF339294EF25E0FFD295A293E43337
:080FEA004207C2950EBE08EAA1
:010FF20022DC
:0C10CA00C296120FDAE4FF120FDAD29681
:0110D60022F7
:10105F00C296120FDAAC07AF05120FDAD296AF04B1
:01106F00225E
:060EAF008B148A15891660
:100EB500C296120FDAE4FDEDC395175017E4FF1241
:100EC5000FDAAB14AA15A9168D82758300EF1208E7
:060ED500800D80E3D296BF
:010EDB0022F4
:0B0E74007B007A00793C7517057F2A8F
:060E7F008B148A15891690
:100E8500C296120FDA8F18E4FDEDC395175018AB13
:100E9500140516E516AA157002051514F912083A77
:090EA500FF120FDA0D80E2D29673
:010EAE002221
:100F32008B108A118912C297120E74AB10AA11A9D2
:100F4200127517047FA0120E7F7D0E7F2012105F94
:070F5200D2977FFA0210376D
:100DF1008B108A118912C2977B007A00794175178D
:100E0100057F30120E7F7D0F7F2012105F7F07124A
:100E110010CA8F2030060EAB10AA11A91275170443
:100E21007F61120EAFAD207F2712105FD2977FC86E
:030E310002103775
:100D0F00C297D296C2957FC81210371210371210A1
:100D1F0037C297D296C2957B007A00794175170535
:100D2F007F30120E7F120E747D017F2112105F7FB4
:100D3F002212105F1D7F2512105F7D047F3112106C
:100D4F005F7D077F2612105F7FC8121037021037A2
:03000000020AA64B
:0C0AA600787FE4F6D8FD75815F020AED50
:10074400E709F608DFFA8046E709F208DFFA803E97
:1007540088828C83E709F0A3DFFA8032E309F60884
:10076400DFFA8078E309F208DFFA807088828C83EC
:10077400E309F0A3DFFA806489828A83E0A3F608A0
:10078400DFFA805889828A83E0A3F208DFFA804C7A
:1007940080D280FA80C680D4806980F28033801051
:1007A40080A680EA809A80A880DA80E280CA8033BA
:1007B40089828A83ECFAE493A3C8C582C8CCC58332
:1007C400CCF0A3C8C582C8CCC583CCDFE9DEE78002
:1007D4000D89828A83E493A3F608DFF9ECFAA9F081
:1007E400EDFB2289828A83ECFAE0A3C8C582C8CCD7
:1007F400C583CCF0A3C8C582C8CCC583CCDFEADEF0
:10080400E880DB89828A83E493A3F208DFF980CC51
:1008140088F0EF60010E4E60C388F0ED2402B4044A
:100824000050B9F582EB2402B4040050AF232345F1
:060834008223900794737B
:10083A00BB010689828A83E0225002E722BBFE02BC
:09084A00E32289828A83E49322EF
:10085300BB010CE58229F582E5833AF583E022505A
:1008630006E92582F8E622BBFE06E92582F8E222A4
:0D087300E58229F582E5833AF583E49322BE
:10088000F8BB010DE58229F582E5833AF583E8F0AE
:10089000225006E92582C8F622BBFE05E92582C85A
:0208A000F22242
:1008A200EF8DF0A4A8F0CF8CF0A428CE8DF0A42E6A
:0208B200FE2224
:1008B400BC000BBE0029EF8DF084FFADF022E4CC28
:1008C400F875F008EF2FFFEE33FEEC33FCEE9DECF1
:1008D400984005FCEE9DFE0FD5F0E9E4CEFD22ED37
:1008E400F8F5F0EE8420D21CFEADF075F008EF2F81
:1008F400FFED33FD4007985006D5F0F222C398FD72
:050904000FD5F0EA220E
:100AB200020B32E493A3F8E493A34003F68001F21D
:100AC20008DFF48029E493A3F85407240CC8C33345
:100AD200C4540F4420C8834004F456800146F6DF14
:100AE200E4800B0102040810204080900FA1E47EF4
:100AF200019360BCA3FF543F30E509541FFEE49309
:100B0200A360010ECF54C025E060A840B8E493A3CF
:100B1200FAE493A3F8E493A3C8C582C8CAC583CAFA
:100B2200F0A3C8C582C8CAC583CADFE9DEE780BEB2
:010FBF000031
:00000001FF
