:0A14FC007265616479202020200051
:071201004400060B0B0B0B70
:10106A00E4F593F594D2C1D2B7D28490004F74FFBD
:10107A00F0A37415F0A37418F01214891214B8129C
:10108A00143F12111B12098A1213027BFF7A147978
:10109A00FC9000257410F0E4FD7F0A12100A120772
:1010AA007C7B017A0079061212391214F07B017ADC
:0E10BA000079021210C81214F0120BF280E03E
:0B14F0000000007F027E99DEFEDFFCA2
:0114FB0022CE
:10120800480016050109080A0206044400120802EB
:021218000601CD
:0415180075A0012297
:080EC800900069EEF0A3EFF0C9
:100ED000E4A3F0ED702DF090006BE0FFC394085098
:100EE0005474162FF582E43400F583E025E0F5A074
:100EF000900069E0FEA3E0FF12135990006BE0043C
:100F0000F080D490006B7407F090006BE0FFD394F6
:100F100000402274162FF582E43400F583E025E0CA
:100F2000F5A0900069E0FEA3E0FF12135990006B5A
:050F3000E014F080D484
:010F35002299
:050F3600900054EFF0F3
:100F3B00E4A3F0A3F0A3F0A3F0900054E0FF900023
:100F4B0058E0FE04F0EEC39F504EE4900055F09035
:100F5B000055E0C3941450E1E4900057F090005614
:100F6B00E02416F582E43400F583E025E0F5A0904B
:100F7B000056E004F0E0C394084002E4F07F017EE9
:100F8B0000121359900057E004F0E0C3941440CDC5
:080F9B00900055E004F080B75E
:010FA300222B
:1014790074162FF582E43400F583E025E0F5A02207
:10148900D2AF758911D2A9758CFB758AB4D28C2219
:03000B00020E459D
:100E4500C0E0C0F0C083C082C0D075D000C000C073
:100E550001C002C003C004C005C006C007758CFBF5
:100E6500758AB490004FA3E0FAA3E0F912098490C3
:100E7500004DE004F0700690004CE004F090004551
:100E8500E0600E900044E004F07006900043E0043A
:100E9500F0D3900044E094A0900043E0940F400804
:100EA500E4F0A3F0900045F0D007D006D005D004BB
:100EB500D003D002D001D000D0D0D082D083D0F0E2
:030EC500D0E03248
:10135900900052EEF0A3EFF0E490004CF0A3F0906F
:101369000052E0FEA3E0FFC390004DE09F90004CC7
:05137900E09E40EB22A4
:0E14A90000007F167E037DE3DDFEDEFCDFFA31
:0114B7002212
:1000460000000000000000000000000000000000AA
:10005600000000000000000000F8000000000000A2
:1000660000333000000000100C06100C06000000E3
:1000760000000000000040C07840C0784000043F07
:1000860004043F040400007088FC083000000018D7
:1000960020FF211E0000F008F000E01800000021FB
:1000A6001C031E211E0000F00888700000001E219F
:1000B60023241927211010160E000000000000004E
:1000C600000000000000000000E01804020000002C
:1000D60000071820400000020418E000000000405D
:1000E600201807000000404080F0804040000202D7
:1000F600010F01020200000000F0000000000101F3
:10010600011F01010100000000000000000080B096
:100116007000000000000000000000000000000168
:100126000101010101010000000080601804006067
:10013600180601000000000000000000000000306A
:1001460030000000000000E010080810E000000F7A
:10015600102020100F00001010F8000000000020F2
:10016600203F20200000007008080888700000303A
:1001760028242221300000300888884830000018E2
:10018600202020110E000000C02010F800000007FB
:100196000424243F240000F8088888080800001971
:1001A600212020110E0000E0108888180000000FA2
:1001B600112020110E0000380808C8380800000079
:1001C600003F000000000070880808887000001CCE
:1001D600222121221C0000E010080810E000000087
:1001E600312222110F00000000C0C00000000000F4
:1001F6000030300000000000008000000000000019
:10020600806000000000000080402010080000010F
:1002160002040810200040404040404040000404D2
:10022600040404040400000810204080000000209C
:10023600100804020100007048080808F0000000D9
:10024600003036010000C030C828E810E00007186A
:10025600272423140B000000C038E0000000203CD7
:1002660023020227382008F8888888700000203F7B
:10027600202020110E00C030080808083800071892
:1002860020202010080008F808080810E000203F89
:10029600202020100F0008F88888E8081000203F6A
:1002A60020202320180008F88888E8081000203F3E
:1002B600200003000000C0300808083800000718B6
:1002C6002020221E020008F808000008F808203F37
:1002D600210101213F20000808F80808000000203D
:1002E600203F2020000000000808F8080800C08011
:1002F60080807F00000008F888C028180800203F8A
:1003060020012638200008F8080000000000203FE1
:1003160020202020300008F8F800F8F80800203FD8
:10032600003F003F200008F830C00008F808203FD2
:10033600200007183F00E01008080810E0000F1022
:10034600202020100F0008F808080808F000203FB9
:10035600210101010000E01008080810E0000F1854
:10036600242438504F0008F8888888887000203F79
:100376002000030C30200070880808083800003878
:10038600202121221C00180808F80808180000007F
:10039600203F2000000008F808000008F808001FA9
:1003A600202020201F000878880000C83808000098
:1003B60007380E010000F80800F80008F800033CB2
:1003C6000700073C0300081868808068180820307A
:1003D6002C03032C30200838C800C8380800000059
:1003E600203F2000000010080808C8380800203800
:1003F600262120201800000000FE02020200000054
:10040600007F40404000000C30C0000000000000AB
:1004160000010638C00000020202FE000000004093
:1004260040407F00000000000402020204000000B9
:1004360000000000000000000000000000008080B6
:10044600808080808080000202040000000000009E
:10045600000000000000000080808080000000197D
:10046600242222223F2008F8008080000000003F5E
:10047600112020110E000000008080800000000E78
:10048600112020201100000000808088F800000E56
:10049600112020103F200000808080800000001F77
:1004A600222222221300008080F0888888180020EB
:1004B600203F202000000000808080808000006BAC
:1004C60094949493600008F8008080800000203F98
:1004D600210000203F2000809898000000000020A6
:1004E600203F20200000000000809898000000C0F7
:1004F6008080807F000008F8000080808000203F18
:1005060024022D302000000808F80000000000201A
:10051600203F202000008080808080808000203F57
:1005260020003F20003F8080008080800000203F28
:10053600210000203F200000808080800000001FF6
:10054600202020201F00808000808000000080FF87
:10055600A12020110E000000008080808000000E87
:10056600112020A0FF8080808000808080002020D5
:100576003F21200001000000808080808000003341
:10058600242424241900008080E0808000000000DC
:10059600001F202000008080000000808000001FD7
:1005A600202020103F208080800000808080000175
:1005B6000E300806010080800080008080800F30A9
:1005C6000C030C300F00008080008080800000202B
:1005D600312E0E3120008080800000808080808156
:1005E6008E701806010000808080808080000021C7
:1005F600302C2221300000000000807C0202000026
:100606000000003F404000000000FF000000000026
:100616000000FF0000000002027C80000000004095
:10062600403F000000000006010102020404000031
:10063600000000000000080889EA1888000404FC8D
:10064600040404FC0000000000000000000000009C
:10065600000000000000020100FF0186402018078C
:100666004080403F00000000000000000000000045
:100676000000000000001010F01F10F00040E058CD
:1006860047405060C000000000000000000000006D
:100696000000000000004022150816210000FE425E
:1006A600424242FE00000000000000000000000080
:1006B600000000000000008060F807000000FF4016
:1006C60020100804000000000000000000000000E8
:1006D600000000000000010000FF000402013F408E
:1006E600404040407800000000000000000000008C
:1006F6000000000000000000F010101010FF1010A5
:100706001010F000000000000000000000000000D3
:1007160000000000000000000F04040404FF0404AD
:1007260004040F00000000000000000000000000AC
:1007360000000000000000000000000000000000B3
:1007460000000000000000000000000000000000A3
:100756000000000000000000000000000000000093
:100766000000000000000000000000000000000083
:060776000000000000007D
:1013E200EF4E60157D087C07ED1DAA0470011C4AB2
:0913F20070F6EF1F70EA1E80E79F
:0113FB0022CF
:09150600D2B6D2B5C2B5C2B622BC
:07000300D2B6C2B5D2B5224E
:0B1499001213391214A4AF041213390F
:0514A400D2B6C2B62221
:07133200AC071215067F78DD
:10133900C2B6E4FEAD07ED5480B48004D2B5800294
:0F134900C2B5EF25E0FFD2B6C2B60EEEB408E58E
:011358002272
:0E14C7001213321214A4E4FF1214990200034F
:0E14D5001213321214A47F4012149902000365
:1013A2001213B3E4FDFCFFFE1213B37F10E4FDFC45
:0113B200FE3C
:1013B300AB07AA06ED4C60030214D5AF031214C7A2
:0113C3002207
:08000E00900029E0FFA3E0FDD2
:10001600A907ED24B0FFE433FEE4FDFC1213B3E9B7
:1000260054F0C4540F7E004410FFE4FDFC1213B3D9
:0C003600E9540FFF7E00E4FDFC0213B350
:1013FC007F8D1213AFE4FDFC7F14FE1213B3E4FDDA
:07140C00FC7FAFFE0213B3E9
:10130200E4F9E924B0FFE433FEE4FDFC1213A2E4A5
:10131200900020F07D017C00E4FFFE1213B39000E8
:0F13220020E004F0E0C3948040EA09E9B408D366
:011331002299
:0B0A6A0090002AEDF0900029EFF0FD55
:100A7500E490002DF0F9EB24E0F0EDD3947F400AEB
:100A8500E4900029F0A3E02402F090002CE064102B
:100A9500706E12000EE4F990002DE075F010A42997
:100AA500F582E435F0F583E582244CF582E583345F
:100AB50000F583E493FF7E007D017C001213B309EA
:100AC500E9B408D3900029E0FFA3E004FD12001665
:100AD500E4F990002DE075F010A429F582E435F0D5
:100AE500F583E5822454F582E5833400F583E493A8
:100AF500FF7E007D017C001213B309E9B408D322FF
:100B050012000EE4F990002DE075F006A42446F5D8
:100B150082E43400F583E58229F582E43583F583A3
:100B2500E493FF7E007D017C001213B309E9B4064E
:010B3500D4EB
:010B3600229C
:0713C400900029EFF0A905DC
:1013CB007F017E00AD0119ED600C900029E0FD7CE2
:0613DB000012090780EE7C
:0113E10022E9
:0E0B3700900020EFF0A3EDF0A3EAF0A3EBF0A6
:100B4500E4900028F0900026F0900024E0FF90004B
:100B550026E0FEC39F4003020BF1C3EF9E14FD7F09
:100B65000A1213C4900022E0FCA3E0FDCFCDCFCE46
:100B7500CCCE1209197C007D0A120919900027EDC7
:100B8500F0A3E07036900024E014FF900026E0FE0C
:100B9500C39F5027A3E0701D900025E0FCC3138E72
:100BA500F0A4FF900020E02FFFA3E0FD90002CECC7
:100BB500F07B20802B9000287401F0900025E0FE4A
:100BC500C313FFA3E0FDEF8DF0A4FF900020E02FFD
:100BD500FFA3E0FD900027E02430FB90002CEEF011
:0C0BE500120A6A900026E004F0020B4E99
:010BF10022E1
:10100A00900020EFF0A3EDF0A3EBF0A3EAF0A3E940
:01101A00F0E5
:10101B00E4900026F0900022E0FBA3E0FAA3E0F9B5
:10102B00900026E0F5827583001208B8FB602F90C4
:10103B000020E0FFA3E0FD900025E090002CF012D3
:10104B000A6A900020E02408F0E0D394784007E48B
:0E105B00F0A3E02402F0900026E004F080B73D
:011069002264
:0D0D2D0090005BEBF0900059EFF0A3EDF0AB
:100D3A00E490005CF0120016E4F990005BE075F0B4
:100D4A0040A4243CF582E5F03406F583E58229F5D2
:100D5A0082E43583F583E493FF7E007D017C0012F3
:100D6A0013B390005CE004F009E9B410CD90005987
:100D7A00E0FFA3E004FD120016E4F990005BE075C1
:100D8A00F040A4245CF582E5F03406F583E5822977
:100D9A00F582E43583F583E493FF7E007D017C00D0
:0E0DAA001213B390005CE004F009E9B410CD20
:010DB8002218
:0A0C9A0090002EEFF0900030EBF018
:100CA400E4900035F0A3F0900031E0FF54077008A1
:100CB400EF131313541F800A900031E013131354DD
:100CC4001F04900038F0900038EDF0900031E0FF00
:100CD400900038E0FDC39F504F90002EE0FF1200BB
:100CE40016E0900037F0900030E0FF900037E0C34A
:100CF4009F502D900032E0FBA3E0FAA3E0F9A3E4B7
:100D040075F00112096E85F082F5831208B8FF7E32
:100D1400007D017C001213B3900037E004F080C61C
:080D2400900038E004F080A308
:010D2C0022A4
:10098A00E4FDFC7FAEFE1213A2E4FDFC7F40FE12E2
:10099A0013B3E4FDFC7FB0FE1213B3E4FDFC7F81C8
:1009AA00FE1213B3E4FDFC7FFFFE1213B3E4FDFC59
:1009BA007FA0FE1213B3E4FDFC7FA6FE1213B3E47C
:1009CA00FDFC7FA8FE1213B3E4FDFC7F3FFE121369
:1009DA00B3E4FDFC7FC0FE1213B3E4FDFC7FD3FE3B
:1009EA001213B3E4FDFCFFFE1213B3E4FDFC7FD542
:1009FA00FE1213B3E4FDFC7F80FE1213B3E4FDFC88
:100A0A007FD8FE1213B3E4FDFC7F05FE1213B3E494
:100A1A00FDFC7FD9FE1213B3E4FDFC7FF1FE121335
:100A2A00B3E4FDFC7FDAFE1213B3E4FDFC7F12FE91
:100A3A001213B3E4FDFC7FDBFE1213B3E4FDFC7F6B
:100A4A0030FE1213B3E4FDFC7F8DFE1213B3E4FDF6
:100A5A00FC7F14FE1213B3E4FDFC7FAFFE0213B356
:10121A0045003E00000000A145003900000000A181
:10142A00E4FEEEC39F500D00000000000000000023
:04143A00000E80EE32
:01143E00228B
:0A137E00EBF0A3EAF0A3E9F0C29639
:10138800E4FEEF339294EF25E0FFD295A293E43385
:091398004FFFC2950EEEB408E906
:0113A1002229
:0C14E300C296121388E4FF121388D29600
:0114EF0022DA
:10146800C296121388AC07AF05121388D296AF0440
:011478002251
:0312A00090002497
:1012A30012137EE4FD900027E0FFEDC39F501CE482
:1012B300FF121388900024E0FBA3E0FAA3E0F98D6A
:0D12C30082758300EF1208E50D80DAD296E7
:0112D00022FB
:0E11BF007B017A0079399000277405F07F2AB1
:0311CD009000246B
:1011D00012137E900028EFF0E4FD900027E0FFED71
:1011E000C39F501A900024E0FBA3E475F00112099C
:1011F0006EA9F0FA12089FFF1213880D80DCD296B8
:0112000022CB
:10123900900020EBF0A3EAF0A3E9F0C2971211BFE6
:10124900900020E0FBA3E0FAA3E0F99000277404E2
:10125900F07FA01211CD7D0E7F20121468D2977FE6
:04126900FA02142A47
:1010C800900020EBF0A3EAF0A3E9F0C2977B017A45
:1010D80000793E9000277405F07F301211CD7D0F06
:1010E8007F201214687F071214E38F2030061690B1
:1010F8000020E0FBA3E0FAA3E0F99000277404F0D5
:101108007F611212A0AD207F27121468D2977FC882
:0311180002142A94
:10111B00C297D296C2957FC812142A12142A12149F
:10112B002AC297D296C2957B017A00793E9000270E
:10113B007405F07F301211CD1211BF7D017F21128A
:10114B0014687F221214681D7F251214687D047F9A
:10115B00311214687D077F261214687FC812142A77
:03116B0002142A41
:0F14B800759D01E4F5BD75BC807F02FE021359DE
:10145400EF4488F5BC00000000E5BC30E4FB53BC5D
:04146400EFAFBD2207
:10143F0053BAFE759A5075D7E075D6FE758E147532
:05144F00AF01D2AF2245
:0300430002141391
:10141300C0E0E59A30E003539AFEE59A30E10553C4
:071423009AFDC208D0E0327F
:09150F002008FDEFD208F59B2233
:10126D00900020EBF0A3EAF0A3E9F0900020E0FB62
:10127D00A3E0FAA3E0F912089F6017900020A3E401
:10128D0075F00112096EA9F0FA12089FFF12150FE1
:03129D0080D922D3
:03151C0002126D4B
:100FA40056656869636C652020202000506564657F
:100FB40073747269616E00414C4C20202020202003
:100FC40020007265616479202020202020002020E8
:100FD400202020202020202020004E6F20546872E2
:100FE4006F7567682000D3A2004C65742054687242
:100FF4006F75676820202000202053544F50202014
:0610040020202020200046
:0E122A00410045004200430000420048000021
:01000A0022D3
:1012D100C2C3D2C230B71890004EE014F0E0FF1242
:1012E100147990004EE0D3940050157407F0221247
:1012F100151890004F74FFF0A37415F0A37418F043
:0113010022C9
:10116E00C2C2D2C330C11790004EE004F0E0FF12AD
:10117E00147990004EE0C394074035E4F022121526
:10118E0018900049E004F07006900048E004F0D397
:10119E00900049E094A0900048E0940F4012E4F0D3
:1011AE00A3F090004F74FFF0A37412F0A374D1F06B
:0111BE00220E
:10077C0020841FE4FF121454EF25E025E045BEC38E
:10078C0094C8500E9000457402F07BFF7A0F79A448
:10079C00805030841FE4FF121454EF25E025E0450F
:1007AC00BED394C8400E9000457401F07BFF7A0FC5
:1007BC0079B0802E20841FE4FF121454EF25E0251D
:1007CC00E045BED394C8400E9000457403F07BFF07
:1007DC007A0F79BB800C900045E070137BFF7A0F89
:1007EC0079C69000257410F0E4FD7F0A12100A20DF
:1007FC00B32F7BFF7A0F79D29000257410F0E4FDB3
:10080C007F0A12100A90004F74FFF0A37412F0A329
:10081C0074D1F09000007401F07BFF7A0F79DE80C8
:10082C003020B4437BFF7A0F79D29000257410F0FE
:10083C00E4FD7F0A12100A90004F74FFF0A37411AC
:10084C00F0A3746EF09000007402F07BFF7A0F79C5
:10085C00ED9000257410F07D037F0A12100A7BFFC7
:10086C007A0F79EA12151C900045E0900007F0E42D
:10087C00FF121454EF75F004A4FFADBEE5F0FAEFCF
:10088C004DFB9000247404F0A37410F07D057F5090
:03089C00020B3715
:100BF20090000DE0FF900003E06F7003020C997B00
:100C0200FF7A0F79D29000257410F0E4FD7F0A126A
:100C1200100A900003E0B4011C90004F74FFF0A38F
:100C22007412F0A374D1F09000007401F07BFF7A8B
:100C32000F79DE8044900003E0B4021C90004F74F0
:100C4200FFF0A37411F0A3746EF09000007402F030
:100C52007BFF7A0F79ED8021900003E0B40330909E
:100C6200004F74FFF0A37415F0A37418F090000005
:100C72007403F07BFF7A0F79FC9000257410F07DED
:100C8200037F0A12100A7BFF7A0F79EA12151C9071
:080C92000003E090000DF022C8
:03000000020DB935
:0C0DB900787FE4F6D8FD758121020E0061
:10089F00BB010689828A83E0225002E722BBFE0257
:0908AF00E32289828A83E493228A
:1008B800BB010CE58229F582E5833AF583E02250F5
:1008C80006E92582F8E622BBFE06E92582F8E2223F
:0D08D800E58229F582E5833AF583E4932259
:1008E500F8BB010DE58229F582E5833AF583E8F049
:1008F500225006E92582C8F622BBFE05E92582C8F5
:02090500F222DC
:10090700EF8DF0A4A8F0CF8CF0A428CE8DF0A42E04
:02091700FE22BE
:10091900BC000BBE0029EF8DF084FFADF022E4CCC2
:10092900F875F008EF2FFFEE33FEEC33FCEE9DEC8B
:10093900984005FCEE9DFE0FD5F0E9E4CEFD22EDD1
:10094900F8F5F0EE8420D21CFEADF075F008EF2F1B
:10095900FFED33FD4007985006D5F0F222C398FD0C
:050969000FD5F0EA22A9
:10096E00A3F8E0C5F025F0F0E5821582700215833C
:06097E00E0C838F0E82299
:060984008A838982E473FE
:100DC50002106AE493A3F8E493A34003F68001F2CA
:100DD50008DFF48029E493A3F85407240CC8C3332F
:100DE500C4540F4420C8834004F456800146F6DFFE
:100DF500E4800B0102040810204080901201E47E7B
:100E0500019360BCA3FF543F30E509541FFEE493F2
:100E1500A360010ECF54C025E060A840B8E493A3B9
:100E2500FAE493A3F8E493A3C8C582C8CAC583CAE4
:100E3500F0A3C8C582C8CAC583CADFE9DEE780BE9C
:0112380000B5
:00000001FF
